:020000040800F2
:1000000090060020210100081115000815150008B0
:10001000191500081D150008211500080000000032
:10002000000000000000000000000000291500088A
:1000300025150008000000002D15000831150008E6
:1000400035150008391500083D1500084115000850
:1000500045150008491500084D1500085115000800
:10006000551500088D150008911500089515000814
:10007000991500089D150008A1150008A515000890
:10008000A9150008AD150008B115000811160008E3
:1000900015160008191600081D160008211600087C
:1000A0002516000871060008291600082D160008FC
:1000B0003116000835160008391600083D160008EC
:1000C0004116000845160008491600084D1600089C
:1000D0005116000855160008C1160008C51600087C
:1000E000C9160008111700081517000801207047ED
:1000F00010B5094C02E002F011F90C3407488442B3
:1001000008D26068A16822688142F4D1002102F01F
:1001100011F9F2E710BD00BF444600085C46000834
:10012000024CA04730B1024CA04703E0ED000008AC
:10013000F1000008034C4FF00000A047024C034DB3
:10014000AE462047DD07000871210008413700084E
:1001500010B50C00F1283ED0F22802D0F32874D05C
:10016000D3E0012C11DB642C00DB64240520444324
:10017000924804805FF48051854801F08BF95FF468
:100180000051834801F088F9BFE0002C15D57FF0BD
:100190006200844201DA7FF063047FF0040044438C
:1001A000864804805FF48051794801F075F95FF466
:1001B0000051774801F06EF9A7E0804800210180E6
:1001C0005FF48051724801F065F95FF400517048A6
:1001D00001F060F999E0012C11DB642C00DB642450
:1001E00005204443764804805FF48041684801F06C
:1001F00053F95FF40041664801F04CF985E0002CAA
:1002000015D57FF06200844201DA7FF063047FF04D
:10021000040044436A4804805FF480415C4801F074
:1002200039F95FF400415A4801F036F96DE064484D
:10023000002101805FF48041554801F02BF95FF403
:100240000041534801F026F95FE0012C1EDB642CCD
:1002500000DB6424052044435848210001805FF4FA
:1002600080514B4801F016F95FF40051484801F005
:1002700013F9534804805FF48041454801F00CF9BC
:100280005FF40041424801F005F93EE0002C22D520
:100290007FF06200844201DA7FF063047FF00400A3
:1002A00044434648210001805FF48051384801F002
:1002B000F3F85FF40051364801F0ECF84048048050
:1002C0005FF48041324801F0E5F85FF400413048C6
:1002D00001F0E2F819E03948002101803848002196
:1002E00001805FF480512A4801F0D4F85FF4005196
:1002F000274801F0CFF85FF48041254801F0CAF8A3
:100300005FF40041224801F0C5F810BD00B532216C
:10031000F320FFF71DFF00BD00B57FF03101F32092
:10032000FFF716FF00BD000000B57FF01D01F120B2
:10033000FFF70EFF3221F220FFF70AFF00BD000099
:1003400000B53221F120FFF703FF7FF01D01F220FD
:10035000FFF7FEFE00BD000000B518480021018037
:100360001748002101805FF48051094801F092F89C
:100370005FF40051064801F08DF85FF480410448B5
:1003800001F088F85FF40041014801F083F800BDF6
:10039000000C014000B53221F120FFF7D9FE5F21AA
:1003A000F220FFF7D5FE00BD00B55F21F120FFF779
:1003B000CFFE3221F220FFF7CBFE00BD3C0400400F
:1003C00040040040F0B504002A48002101802A487A
:1003D000002101802B48210003F09AFD04F0A8F8C9
:1003E000264A274B03F0C2FB06000F00274800688F
:1003F00004F0ECF802000B003000390003F0A6FB1B
:10040000002833D0234D1F48210003F081FD010057
:100410000E001D48210003F07BFD310003F0D4FDE8
:1004200001000C001948006804F0DCF8210003F01A
:100430009BFE04F0A7F82880154800681549098834
:10044000884210D01348008811490968884201DAAF
:10045000FFF7A0FF0E4800680E490988884207DAB6
:10046000FFF7A2FF04E0FFF79FFF01E0FFF774FF33
:10047000F0BD00003C040040400400401F85EB51EB
:10048000B81E1940000078C2000078421C0100200C
:10049000140100208402002000B51348007865286C
:1004A0000CD2114810490978491D01700E48017895
:1004B000F320FFF74DFE3A4800F080FD00BD00003C
:1004C00000B50948007800280CD407480649097887
:1004D000FB31017004480178F320FFF739FE304802
:1004E00000F06CFD00BD00001001002000B50248C6
:1004F000FFF768FF00BD00BF0000484300B5494852
:1005000000884D49884204D3474800884A498842B8
:1005100041D2FFF701FF224800F050FD4448008817
:100520004549884209D2434800884349884204D259
:10053000FFF7F2FE194800F041FD3D4800883E49B2
:10054000884209D23B4800883849884204D3FFF7E3
:10055000EBFE124800F032FD3548008833498842EE
:1005600009D3344800883449884204D2FFF7E8FEB2
:100570000A4800F023FD2E4800882C4988420CD3FD
:100580002C4800882949884207D3FFF7D9FE034841
:1005900000F014FD01E0FFF7B9FE00BDFFFF9F0072
:1005A000FFFF1F0000B51F4800882349884204D37D
:1005B0001D4800882049884202D2FFF7CDFE2EE078
:1005C0001B480088194988420AD31A4800881A49EA
:1005D000884205D2FFF7B4FE114800F0EFFC1EE0A0
:1005E00013480088144988420AD2124800880F49EB
:1005F000884205D3FFF798FE094800F0DFFC0EE0C3
:100600000B4800880C49884207D20A4800880A49EA
:10061000884202D2FFF77AFE01E0FFF77DFE00BDBF
:10062000FFFF00007C0200208202002031750000E4
:100630007E020020800200203075000000B52021DD
:100640000A4800F013FF002802D05FF0FF3000E0FE
:10065000012000BD00B58021044800F007FF0028FC
:1006600001D0012001E05FF0FF3000BD000C01402F
:1006700010B53248324909780170FFF7DFFF304981
:1006800008702F4890F90000012809D12D482D4904
:1006900009682D4A12881204120C8918016008E0BA
:1006A000284828490968284A12881204120C891A15
:1006B00001602548002101802A4C2248006803F08F
:1006C00085FF224A224B03F051FA03F005FF206018
:1006D000012001F0EFFB1F481F4909780170FFF767
:1006E000B9FF1D4908701C4890F90000012809D184
:1006F0001A481A4909681A4A12881204120C8918F1
:10070000016008E0154815490968154A1288120465
:10071000120C891A0160124800210180124C0F4806
:10072000006803F053FF094A094B03F01FFA03F076
:10073000D3FE2060012001F0BDFB10BD8602002029
:100740008702002018010020240000408FC2F528F5
:100750005C8FC23F88020020890200202001002017
:1007600024080040140100201C01002030BF704705
:1007700020BF704740BF7047BFF36F8F7047BFF314
:100780004F8F7047BFF35F8F704701DF7047EFF304
:100790001480704780F31488BFF36F8F7047EFF3B6
:1007A0000980704780F309887047EFF3088070472D
:1007B00080F30888704772B6704762B6704771B6AA
:1007C000704761B6704780F311887047EFF312806D
:1007D000704740BA704700BA7047000000B500F09B
:1007E000D3F900F0B9FA00F0C7FB00F01DFA00F0F1
:1007F000CDF800F009FB00F017F900F061F951485D
:1008000001F0B6F9012001F0B9F9AA21854801F0FB
:10081000FFFB4D4801F098FD4CA001F095FD6420D0
:1008200000F0CCFB4A4801F08FFD48A001F08CFDA0
:10083000642000F0C3FB474801F086FD43A001F0AF
:1008400083FD642000F0BAFB434801F07DFD3FA02A
:1008500001F07AFD642000F0B1FB404801F074FD26
:100860003AA001F071FD642000F0A8FB3C4801F0C3
:100870006BFD36A001F068FD642000F09FFB394855
:1008800001F062FD31A001F05FFD374801F05CFD31
:1008900036488A490988BA4A1268891A0180344858
:1008A00034490988B64A1268891A018032483349A6
:1008B0000988B34A1268891A018031483149098888
:1008C000AF4A1268891A01802F480078202801D188
:1008D000FFF742FD2C480078772801D1FFF716FD7D
:1008E00029480078732801D1FFF716FD26480078C3
:1008F000642801D1FFF724FD23480078612801D145
:10090000FFF712FD204800782B2801D1FFF7C4FD26
:100910001D4800782D2801D1FFF7D2FD1A48007834
:10092000782801D1FFF73EFE17480078622801D1F0
:10093000FFF7E4FD144800787928A9D1FFF7D6FD28
:10094000A6E700BF28230000704700080A00000047
:10095000C04700081448000868480008BC48000860
:100960001449000868490008BC4900087C020020BE
:100970007E020020260100208002002028010020A5
:10098000820200202A0100208C02002000B51948B4
:100990005FF41651016018480021018017480021BA
:1009A0000180174800210180164800210180164867
:1009B0000C2101801548002101801548002101808B
:1009C000144800210180144800210180094915487C
:1009D00001F078FA00221149124801F0F1FA0122DF
:1009E0000F49104801F0ECFA01210E4801F0DAFA43
:1009F00000BD00BF4001002044010020460100204E
:100A0000480100204A0100204C0100204E01002036
:100A1000500100205201002054010020270700004F
:100A2000250500000038014000B5184800F0BEFB65
:100A300017485449016017482049016016480021B1
:100A40000160164804210160154800210160154825
:100A50008021016014485FF48071016013485FF4E5
:100A60008061016012482021016012485FF400514A
:100A700001601148002101600549044800F0E8FBCD
:100A80000121024800F008FC00BD00BF0800024040
:100A9000780100207C0100208001002084010020DA
:100AA000880100208C01002090010020940100208A
:100AB000980100209C010020A001002024010020BA
:100AC00000B528480021016027480121017027480E
:100AD0000121017026485FF4602101602548002152
:100AE00001602548042101701E49244800F084FA61
:100AF000072301220421214800F0F6FA07230222ED
:100B000005211E4800F0F0FA0723032206211B48A6
:100B100000F0EAFA072304220721184800F0E4FA5B
:100B20000121164800F0A4FA0121144800F094FABB
:100B3000124800F0ABFA114800F0AEFA0028FAD1E2
:100B40000E4800F0B3FA0D4800F0B6FA0028FAD1CA
:100B50000B480C49096801600121084800F0B6FA09
:100B600000BD00BF64010020680100206901002071
:100B70006C0100207001002074010020002401405D
:100B80002C0100204C24014000B500F033FE5FF43E
:100B9000803000F073FE202000F0C0FF0028FAD063
:100BA00000F092FE1D4908701C480078012823D1EE
:100BB000102000F0E5FB022000F0D6FB002000F042
:100BC000CBFE002000F0E2FE5FF4806000F0D0FE7B
:100BD0005FF4E011002000F099FE012000F0A4FE77
:100BE000392000F09BFF0028FAD0022000F0A2FE7E
:100BF00000F0ACFE0828FBD10121012000F04EFFDF
:100C00000121074800F06AFF0121064800F056FF65
:100C10005FF4004000F0C8FE00BD00BF8A02002063
:100C2000070024003D4A000000B581B05FF4007069
:100C3000ADF8000003208DF8020018208DF80300A5
:100C40006946414800F0AAFB5FF48060ADF80000FF
:100C500004208DF8030069463B4800F09FFBF0201C
:100C6000ADF8000000208DF803006946364800F01A
:100C700095FB5FF48070ADF8000003208DF8020052
:100C800010208DF8030069462F4800F087FB5FF4C1
:100C90000050ADF8000003208DF8020010208DF800
:100CA00003006946294800F079FB5FF40060ADF865
:100CB000000004208DF803006946234800F06EFB15
:100CC0000420ADF8000004208DF803006946204898
:100CD00000F064FB0B21002000F0E6FB0221012064
:100CE00000F0E2FB0320ADF8000018208DF80300AF
:100CF00003208DF802006946154800F04FFB5FF4B1
:100D00007040ADF8000010208DF8030003208DF82E
:100D1000020069460E4800F041FB0E48ADF80000A5
:100D200004208DF803006946074800F037FBE420F3
:100D3000ADF8000004208DF803006946044800F077
:100D40002DFB01B000BD00BF0008014000100140B4
:100D5000000C01400208000000B581B000215FF0E6
:100D6000006000F03BFD5FF4C06000F0D5FC122095
:100D70008DF8000001208DF8010001208DF802009F
:100D800001208DF80300684600F0CEFC28208DF885
:100D9000000000208DF8010001208DF802000120E4
:100DA0008DF80300684600F0BFFC08208DF80000B5
:100DB00000208DF8010001208DF8020001208DF83F
:100DC0000300684600F0B0FC19208DF800000120F7
:100DD0008DF8010000208DF8020001208DF803003D
:100DE000684600F0A1FC25208DF8000000208DF859
:100DF000010000208DF8020001208DF803006846F4
:100E000000F092FC01B000BD30B55FF4E1745FF416
:100E1000E17501F00BF847485FF4E1510180464865
:100E2000002101804548642101804548002101805E
:100E30004448002101703F4801F004F8012001F00E
:100E400039F80121012001F025F8012001F01CF8FA
:100E50003D483E4901803E480A2101803D4800212D
:100E600001803D480021018037493C4800F098FE50
:100E70003B48602101803B48022101803A48002123
:100E800001803A48002101803549344800F098FE3D
:100E90000821324800F058FF3248032101803248CF
:100EA000002101802E492D4800F08AFE08212B48A0
:100EB00000F056FF0121294800F036FF01212748A4
:100EC00000F000FF20482A490180214800210180CC
:100ED0002048002101802048002101801A495FF04C
:100EE000804000F05DFE0023002260215FF0804022
:100EF00000F0F6FE01215FF0804000F0E3FE1248B2
:100F00001B49018012480021018012480021018004
:100F10001148002101800C49164800F041FE0023D1
:100F200000225021134800F0DBFE0121114800F09F
:100F3000C9FE30BD580100205A0100205C0100208C
:100F40005E0100206001002030010020F30100005C
:100F5000320100203401002036010020000400404E
:100F6000380100203A0100203C0100203E01002011
:100F7000FFFF00000008004000B582B00420009090
:100F800000208DF8040008208DF8050001208DF860
:100F90000600684600F08EF95FF4006000900020C3
:100FA0008DF8040008208DF8050001208DF806005A
:100FB000684600F07FF902B000BD000001B402E015
:100FC0000098401E009000980028F9D101B07047A9
:100FD00010B5040021000906090E0904090C054892
:100FE00001F016F88021034801F01AF80028F9D022
:100FF000200010BD0038014030B4002300224468B6
:1010000023001C00124B23401D000B680C7953EA8F
:1010100004232B43436083681C000E4B23401D00B8
:10102000CB688C681C434B7954EA43032B438360A1
:10103000C36A1C007FF47003234014000A7C521E14
:1010400022431206120E53EA0253C36230BC7047A9
:10105000FFFEF0FFFDF7F1FF002904D0816851F099
:101060000101816003E08168012291438160704742
:10107000002904D0816851F48071816003E08168A7
:10108000014A0A4082607047FFFE0000816851F00B
:10109000080181607047000001000020896809078D
:1010A00001D5012000E0002070470000816851F068
:1010B0000401816070470000010000208968490731
:1010C00001D5012000E0002070470000002904D075
:1010D000816851F4A001816004E081687FF4A0027E
:1010E0000A40826070470000F0B4002400250A29FD
:1010F00012D3C46807250F00F63703267743BD4097
:10110000AC430D00F63503267543AB401D002300AC
:101110002C001C43C4600DE00469072503264E43E0
:10112000B540AC4303254D43AB401D0023002C00CC
:101130001C430461072A11D2446B1F2513005B1E58
:10114000052673439D40AC43521E05235A439140EC
:101150000D0021002C000C43446324E00D2A11D221
:10116000046B1F251300F933052673439D40AC43E0
:10117000F93205235A4391400D0021002C000C4305
:10118000046310E0C46A1F251300F333052673437C
:101190009D40AC43F33205235A4391400D0021009A
:1011A0002C000C43C462F0BC7047000010B5040072
:1011B0000021200000F070F8002020600020606016
:1011C0000020A0600020E0602048241A0CD0143CCD
:1011D00011D0143C16D0143C1BD0143C20D0143C2D
:1011E00025D0143C2AD02FE031483149096851F00C
:1011F0000F01016028E02E482D49096851F0F001E7
:10120000016021E02A482A49096851F470610160AF
:101210001AE027482649096851F47041016013E03B
:1012200023482349096851F4702101600CE02048EB
:101230001F49096851F47001016005E01C481C4910
:10124000096851F07061016010BD00BF08000240E4
:1012500030B40023026813001A000E4B13401A002A
:101260008B680C6A1C430B6923434C691C438B69D4
:101270002343CC691C434D6A25438B6A2B4313439C
:101280000360CA6842600A6882604968C16030BC15
:10129000704700BF0F80FFFF002904D0016851F0A4
:1012A0000101016003E00168012291430160704780
:1012B0000400024010B4817900292CD00179264A1B
:1012C0000379254C1B5904681C438C501749174A55
:1012D000126803689A430A601549154A1268036840
:1012E0009A430A60417910290CD110490F4A1268BB
:1012F000036813430B600E490D4A126800681043DF
:10130000086010E04179144A4379134C1B59006876
:101310001843885007E001790F4A03790E4C1B5996
:10132000006883438B5010BC7047000008040140E4
:101330000C040140010000200022074B1B680B40F9
:101340001A00084B1B681940002903D0002A01D05D
:10135000012000E0002070470004014001490860BE
:1013600070470000140401400B490B4A126812F048
:1013700038020A600849084A12681043086070473A
:101380000549054A126810239A430A600249024A35
:10139000126810430860704700200240F0B481B02A
:1013A0000022009200220023002400250026CF788E
:1013B0003F073F0F0097CF78FF0603D5009A8B7841
:1013C000134300930A88120621D0056800231AE00F
:1013D00001249C400A882240A24213D19C000F267F
:1013E000A640B5432A00009DA5401543CA78282A87
:1013F00002D101229A404261CA78482A02D10122D0
:101400009A4002615B1C082BE2D3056000250A8824
:101410005FF480739A4226D34568002320E00124BC
:101420001A00083294400A882240A24217D19C0038
:101430000F26A640B5432A00009DA5401543CA7853
:10144000282A04D101221C000834A2404261CA7833
:10145000482A04D101221C000834A24002615B1C0E
:10146000082BDCD3456001B0F0BC704700B502002A
:10147000002092680A4201D0012000E0002000BD57
:1014800000B502000020D2680A4201D0012000E02D
:10149000002000BD0161704741617047002A01D002
:1014A000016100E04161704770B400220F238C0796
:1014B000A40F04256C43A3401A000906090E0B0073
:1014C0009B1004246343114C0906090E0D00AD1056
:1014D000042675430D4E75599543E5500906090ECE
:1014E0000A00921004235A43084B0906090E0C0007
:1014F000A41004256C43054D2C598907890F042538
:10150000694388402043985070BC704708000140F0
:1015100070470000FEE70000FEE70000FEE7000065
:10152000FEE70000704700007047000070470000B1
:1015300070470000704700007047000070470000CF
:1015400070470000704700007047000070470000BF
:101550007047000000B50420FFF7ECFE00280CD017
:101560005FF400510748FFF797FF0748FFF726FD94
:101570005FF400510348FFF78DFF0420FFF7EEFEF4
:1015800000BD00BF00100140FFFF0A0070470000CF
:10159000704700007047000070470000704700006F
:1015A000704700007047000070470000704700005F
:1015B0000E480F4909880F4A1268891A01800E489F
:1015C0000E4909880B4A1268891A01800C480D4996
:1015D0000988084A1268891A01800B480B49098852
:1015E000044A1268891A0180704700BF7C020020FB
:1015F000240100202C0100207E0200202601002072
:101600008002002028010020820200202A01002000
:1016100070470000704700007047000070470000EE
:1016200070470000704700007047000070470000DE
:1016300070470000704700007047000070470000CE
:1016400070470000704700007047000070470000BE
:101650007047000000B51649164800F0EBFC002862
:1016600015D0144800F0D8FC1349087012480178CE
:101670000904090C0F4800F0CBFC0D490D4800F09F
:1016800015FD20210B4800F0CBFC0028F9D10B49B7
:10169000084800F0CFFC002808D00849054800F0B1
:1016A00005FD00220549034800F08AFC00BD00BF8B
:1016B00025050000003801408C02002027070000AB
:1016C000704700007047000000B55FF40060FFF74E
:1016D00031FE002812D05FF480710B48FFF7D0FE76
:1016E00001210A1A1206120E5FF480710648FFF7F4
:1016F000D5FE064805490978CA4302705FF40060C8
:10170000FFF72CFE00BD00BF000801408B02002047
:1017100070470000704700003549024A02430A60E2
:10172000704700000000FA0570B400220023002476
:1017300000250F21C678002E3CD02D4A126812F4E5
:10174000E062D2F5E062120A04239D1AD140427889
:10175000AA40140083780A001A402243120101783B
:101760008907890F082359438A4001788910042387
:101770005943184B5B58FF2401788907890F0825C6
:1017800069438C40A343110022000A401A4313000E
:1017900001788910042251430E4A535001784911AF
:1017A000042251430A4A01230078C006C00E834038
:1017B00053500AE00178491104225143064A01239B
:1017C0000078C006C00E8340535070BC704700BF05
:1017D00000E100E000E400E080E100E0034A024BA9
:1017E0000B4003431360704780FFFF1F08ED00E0CC
:1017F0000CED00E01B48002101601B480021016046
:101800001A48142101601A4800210160194800217A
:1018100001603D483C49096851F001010160694897
:10182000684909680D4A0A40026037483649096824
:101830000B4A0A4002603448334909687FF4802229
:101840000A4002605F485F4909687FF4FE020A406F
:101850000260094800210160704700BF0000FFF8E6
:10186000FFFFF6FE0C100240101002401410024060
:10187000181002401C1002400810024000B5224916
:10188000214A12687FF4803313400B601E491E4AC0
:1018900012687FF4802313400B605FF4803188422C
:1018A00004D05FF48021884207D00CE01648164926
:1018B000096851F48031016005E013481249096854
:1018C00051F4A021016000BD00B5312000F026F9DF
:1018D0000B4908700B480B490968491C016008480E
:1018E0000078002803D107480068FF28EDD1312097
:1018F00000F014F9002801D0012000E0002000BD14
:101900008D020020A40100200010024000222D4B77
:101910001B681A0013007FF47C121A400143114324
:101920000A0028480260704701490860704700BFFC
:10193000600042420021234A1268110003229143B1
:10194000084301001F480160704700001D480068FF
:1019500010F00C007047000000211A4A12681100B4
:10196000F0229143084301001648016070470000CF
:101970000021144A126811000A007FF4E06111404E
:10198000084301000F4801607047000000210D4A24
:10199000126811000A007FF46051114051EAC00141
:1019A00008480160704700000021064A12681100D3
:1019B0000A007FF4404111400843010001480160E2
:1019C000704700000410024030B5002300210022BF
:1019D0000024314D2D6815F00C03002B04D0042B8E
:1019E00005D0082B06D022E02749016021E02649D6
:1019F00001601EE02849096811F47011890C891CE6
:101A0000254A13685FF480321A40002A03D11F4A26
:101A1000514301600DE0204A1268920303D51B4A2E
:101A20005143016005E0184A5143016001E0164945
:101A300001601949096811F0F0031B091449CC5CD5
:101A40000168E14041601449096811F4E0631B0A30
:101A50000F49CC5C4168E14081600F49096811F48D
:101A60006053DB0A0A49CC5C4168E140C1600A4925
:101A7000096811F440439B0B0649CC5CC168B1FB7B
:101A8000F4F1016130BD00BF00127A0000093D0091
:101A9000C4490008D449000804100240002905D0B8
:101AA0000549054A12681043086004E00249024AE9
:101AB000126882430A60704714100240002905D062
:101AC0000549054A12681043086004E00249024AC9
:101AD000126882430A60704718100240002905D03E
:101AE0000549054A12681043086004E00249024AA9
:101AF000126882430A6070471C100240002905D01A
:101B00000549054A12681043086004E00249024A88
:101B1000126882430A6070470C10024010B4002221
:101B20000023002104002406240E64092406240E48
:101B30002200012A02D10B490B6806E0022A02D1D9
:101B400009490B6801E009490B68C206D20E012061
:101B500090401840002801D0012100E00021080039
:101B600010BC7047001002402010024024100240B8
:101B700001490860704700BF14E000E0002806D06B
:101B800006480649096851F00201016005E0034872
:101B900002490968022291430160704710E000E0A9
:101BA0000A8882854A880285028812F08F020280A4
:101BB00002888B88C988194311430180704700004F
:101BC00030B400230022048C22004C88002C02D068
:101BD0004B88012B30D1038B1D004B8802246343BB
:101BE000324CE35A2B4015004A8802246243304CA1
:101BF000A25A2A404C88002C0ED1048C2D4D254031
:101C000005841C000B8823438C88848652F00102D3
:101C10001400CA8822430DE0048C274D254005841A
:101C20000C8853EA04238C88048752F01002C98878
:101C300052EA0112038336E04B88022B02D04B8814
:101C4000032B30D1838B1D004B8802246343174C38
:101C5000E35A2B4015004A8802246243144CA25ACE
:101C60002A404C88022C0ED1048C144D254005844A
:101C70001C000B8823438C88848752F48072C988A7
:101C800052EA01220EE0048C0D4D254005840C889B
:101C900053EA04238C88A0F8404052F48052C9884B
:101CA00052EA01328383028430BC7047D84900086D
:101CB000E0490008323300002333000033320000D3
:101CC00033230000002904D0018851F00101018074
:101CD00003E00188014A0A4002807047FE030000C9
:101CE00030B504000D001100602D04D10122200048
:101CF00000F06CF803E00122200000F041F8290018
:101D0000200000F005F8208950F00700208130BD48
:101D1000002203891A001300024A1A4011430A00E4
:101D20000281704787FF0000002203881A00002903
:101D300002D052F0800202E01100024A0A40028002
:101D4000704700BF7F0300000022038B1A001300BE
:101D5000024A1A4011430A0002837047F7FF00004D
:101D60000022838B1A001300044A1A4013000A024F
:101D70001204120C1A43828370470000FFF7000020
:101D8000F0B400240025068B3400068C3500068C48
:101D90000D4F374007842600224C344026001C019A
:101DA0002404240C144334432A00064D15402A0011
:101DB00051F0010515430021018304830584F0BC23
:101DC000704700BF3033000032330000F0B400240D
:101DD00000250026078B3C00078C3D000901090403
:101DE000090C0E00018C0E4F0F40078421000E4C91
:101DF0000C4021001C032404240C0C432100140279
:101E00002404240C0C432900044D0D40290056F0F5
:101E100010050D4304830584F0BC704703330000B4
:101E2000233300000CFF0000FF0C000000B501216F
:101E30005FF40060FFF762FE00215FF40060FFF7CF
:101E40005DFE00BD10B40D4982880A800C490288ED
:101E50000A800C490B4A128812F09F020A80094935
:101E6000084A1288C38844881C4314430C800249E2
:101E7000007A088010BC7047302C01402C2C0140A7
:101E8000282C0140002C014001490860704700BF28
:101E900000802542012905D10549054A12881043D1
:101EA000088004E00249024A128882430A8070478F
:101EB0000C2C01400249024A128882430A80704772
:101EC000102C01402DE9F04186B088460400002521
:101ED0000026002000900027208A050028002D4DB4
:101EE0000540B8F80600B8F80E100143B8F8100025
:101EF0000843B8F812100143B8F814000843284307
:101F0000050025820025A08905002800224D0540F6
:101F1000B8F80400B8F808100143B8F80C000843FA
:101F200028430500A5810025A08A050028001B4D37
:101F300005402800B8F80A500543A582002501A8ED
:101F4000FFF742FD1648844201D1049E00E0039E43
:101F500019204643D8F8000004214843B6FBF0F0AE
:101F6000009000986421B0FBF1F005010098290071
:101F70000909642201FB120710204743323764200D
:101F8000B7FBF0F00007000F28430500258106B0DD
:101F9000BDE8F081FFC00000F3E90000FFFC000095
:101FA00000380140002904D0818951F40051818119
:101FB00003E08189014A0A4082817047FFDF000007
:101FC000F0B400230024002500260F003F063F0E3A
:101FD0007F093F063F0E3B00C906C90E0C000121D8
:101FE000A1400D000600012B01D10C3604E0022BAC
:101FF00001D1103600E01436002A03D030680543C2
:10200000356002E03068A8433060F0BC70470000E3
:10201000C905C90D818070478088C005C00D704713
:1020200000B50200002012880A4201D0012000E021
:10203000002000BDF0B4020000240025002600208E
:102040000B001B061B0E5B091B061B0E1E00090462
:10205000090CCB06DB0E1D0001272B003D009D4027
:10206000012E03D128009589054008E0022E03D1F6
:102070002800158A054002E02800958A05400C00DA
:102080002404240C240A2404240C012120000C0024
:102090008440200014880440002D03D0002C01D07F
:1020A000012000E00020F0BC704700000022002367
:1020B0000904090C090A0904090C0A0001219140CC
:1020C0000B00018899430180704700000F4900B55B
:1020D00009680A0018BF884700BD00000C4900B518
:1020E00009680A0018BF884700BD0000094900B50B
:1020F00009680A0018BF884700BD0000064900B5FE
:1021000009680A0018BF884700BD0000A801002028
:10211000AC010020B0010020B4010020FEE7000067
:102120000120FFF7FBBF000030B5104D0400206810
:10213000006810B92868844201D1FFF7F1FF2068D8
:10214000296801602C6030BD10B5084C01E0896839
:102150008847216841B10868006820604868002805
:10216000F5D188688047F4E710BD0000B801002071
:1021700001F0E6BA0649086808B100207047054832
:102180000322086004499143091A0160704700BFA7
:10219000BC010020900600209008002082B091FB36
:1021A000F2F3009302FB13110191DDE90023C0E972
:1021B000002306BC7047000030B5E0B1041F206862
:1021C000082818D3800716D1012001F08BFA19488E
:1021D000416809B18C4203D26160446019E0190082
:1021E0004B680BB1A342FAD30A688B189C4203D206
:1021F000012001F08BFA30BD256803D10C00521983
:102200000A6006E04A6812B163199A42F0D362602C
:102210004C6061680029EBD02268A2188A42E7D19D
:1022200000210160606821680268891821604068A7
:102230006060DDE7C001002010B5034C206801009C
:1022400018BF8047201D10BD0000002070B505009C
:10225000EC1D03208443012001F044FAA54204D37D
:10226000012001F053FA002070BD082C04D208248C
:1022700002E0001DFFF7A0FF214D286801000CD1EE
:10228000291D00E0011D0868A0B10268A242F9D32F
:1022900015E01368A34212D2111D0A68002AF8D172
:1022A0000068291D03E01368A34208D2111D0A68C3
:1022B0008242F8D1FFF75EFF0028DAD10021002921
:1022C000CED00E6830680838A04202D2706808602C
:1022D00008E0301908607268426008683268121BB2
:1022E00002603460086818B1416809B1001D00E05F
:1022F00000202860012001F009FA301D70BD00BFE8
:10230000C0010020C9B201E0401C521E1AB103787E
:102310008B42F9D1704700207047000010B50300D0
:10232000002A04E011F8014B521E03F8014BF9D1C9
:1023300010BD0000C9B20300002A02E003F8011B2F
:10234000521EFBD1704700000EB401B502A9020075
:10235000044800916B46012100F040F9BDE80240BD
:1023600003B07047693600080149FEF731BE00BF6F
:10237000D000002010B5034CE06A010018BF804770
:10238000A06910BD4C000020CBB200E0401C0278D8
:102390009A4202D0002AF9D100207047010000E0E3
:1023A000491C0A78002AFBD1081A7047010010B5B1
:1023B000C888CB885FF40042024001201B071B0F36
:1023C000CB8010D18B8873B94B8863B90B8853B914
:1023D00043E08B88103800B2CB804B888B800B8811
:1023E0004B8000230B80CB88002BF2D0CB88102BA6
:1023F0002DD28C88401E00B2E40B54EA4303CB80FC
:102400008B884C88E40B54EA43038B804B880C8800
:10241000E40B54EA43034B800B885B000B80E5E739
:102420000B884C88401C00B2E40354EA53030B8031
:102430004B888C88E40354EA53034B808B88CC8808
:10244000E40354EA53038B80CB885B08CB80CB88B2
:10245000202BE5D21B071B0FCB80CB881A43CA80E9
:1024600010BD000070B53D4E0400E0880D003C49F1
:1024700001400811B0420BD1E088000705D1A088C7
:1024800018B9608808B9208808B1022070BD13E02F
:1024900030B92000FFF78AFF012801DB002070BD62
:1024A0002D18B5420ADB2F48E28803C8120448BF42
:1024B00091F00041C4E90001012070BD012D08DB4D
:1024C000E0882949014051EA0510E0805FF0FF30C3
:1024D00070BDE1885FF400406D1E08400907090FD8
:1024E00051F01001E18000217FF03302954204DABF
:1024F000E080A18061802180D0E72DB208E0628871
:1025000010352DB22280A2886280E288A280E1800C
:102510007FF00E029542F2DB694209B2002917D022
:10252000238865880A00D2F110020B4195401D43B3
:1025300025806388A5880B4195401D436580A3884D
:10254000E5880B4195401D43A580E288CA40E280A2
:10255000E1880843E0805FF0FF3070BDFF070000B6
:10256000F07F00005C4A00080F80000028B9044892
:1025700003C8C2E9000100207047017001207047C4
:10258000F849000829B9094803C8C3E90001002037
:10259000704712B97FF00100704708B10A780280D5
:1025A000087800B970470120704700BF004A000852
:1025B00000B5FFF7DFFE012000BD0000F0B504000C
:1025C0000D0016001F00FFF7D5FE3B00320029006A
:1025D0002000BDE8F040FFF7D5BF00002DE9F04333
:1025E000A3B01C001500CE4A9046D8E90023CDE9DF
:1025F00021230290684608304160002081466846E9
:102600000830C0F8289000E0AD190020ADF8400077
:1026100021AB5FF0FF32290010A8FFF7CFFF0600C3
:10262000012E04DA2878002814BF01260026BDF800
:102630004000252814BF3246721E012A0ADB2900F9
:10264000684600F0BFFF002804D55FF0FF3023B0DC
:10265000BDE8F083BDF84000252819D16846083050
:10266000C0F8109068460830C0F8149068460830EA
:10267000C0F8189068460830C0F81C9068460830CA
:10268000C0F8209068460830C0F82490002007E089
:102690000028B9D168460830806AD8E750F00100B8
:1026A00015F8013F50F0040292B2202BF6D0232BF4
:1026B0000CD02B2B04D02D2B06D0302B09D00CE0C6
:1026C00050F0020080B2EBE71000E9E750F008009C
:1026D000F8E750F0100080B2E2E77FF000412A2BCB
:1026E0000FD123681E1D26601B686E460836002B1E
:1026F000336304D5684608305E42066310006D1CE3
:1027000016E06A460832C2F830900CE06A46083299
:10271000166B8E4206D00A276A4606FB073308323C
:10272000303B13636D1C2B78302B01D33A2BEDD348
:102730002A785FF0FF362E2A03D069460831CE6230
:1027400025E015F8012F2A2A08D121686D1C0A1DE1
:10275000226009686A460832D16218E06A46083287
:10276000C2F82C900EE06A460832D36A8B4208D039
:102770006A46083294460A2203FB02736246303BE3
:10278000D3626D1C2F78302F01D33A2FEBD36946DB
:1027900008318886297840460830FFF7F5FD08B1F2
:1027A00015F8010B8DF83E009DF83E00682807D112
:1027B000287868280DD162208DF83E006D1C08E055
:1027C0006C2806D128786C2802BF71208DF83E0055
:1027D0006D1C6846083012A9C1602F783800413856
:1027E0000CD0001F022809D9133819D0093805D098
:1027F000801E18D0401E3CD0401E022840F2D680D9
:10280000001F36D0401F00F00D81401E08D0401E32
:1028100000F05381C01E00F05E81801E00D0C01EFB
:1028200000F080807EE19DF83E006C280DD0684667
:10283000083001696A460832481C10612068021D90
:102840002260006812AA505477E12068011D2160BF
:10285000006811A980B2ADF844000020ADF8460030
:1028600068460830C662684600F0F4F90028EBD5E7
:1028700064E19DF83E006C2801D120680AE07128CF
:1028800005D120680100083121600CC806E06A28E3
:102890002068F7D0011D21600268D3179DF83E0023
:1028A000682801D112B207E0622801D152B203E0D8
:1028B000742801D07A2800D1D317684608300169FE
:1028C000002B08DC00DB06D26E460836481C30615F
:1028D00012AE2D2013E068460830808E860706D59C
:1028E0006E460836481C306112AE2B2007E0C00748
:1028F00006D56E460836481C306112AE2020705452
:102900006946083109696846083012AE711881605D
:10291000CDE900233900684600F08AFA0DE100BFD6
:10292000384A00089DF83E006C2801D120680AE072
:10293000712805D120680100083121600CC806E02B
:102940006A282068F7D00023011D216002689DF8E5
:102950003E00682801D192B207E0622801D1D2B2CC
:1029600003E0742801D07A2800D10023684608309B
:10297000808E0007C4D50BB9002AC1D057F02000C3
:102980007828BDD16846083001696E460836481C73
:10299000306112AE302070546846083001696E46CE
:1029A0000836481C306112A84754A9E79DF83E003C
:1029B0004C28206801000831216003C8CDE90001DE
:1029C000BDF806000004684608D5083001696A466B
:1029D0000832481C106112A82D2215E00830808EA4
:1029E000694608310969820706D56A460832481CDB
:1029F000106112A82B2207E0C00706D56A460832EC
:102A0000481C106112A82022425469460831096905
:102A10006846083012AA511881603900684600F0F3
:102A2000A7FA8AE09DF83E0062280CD0682832D0D0
:102A30006A281CD06C2825D071280DD0742821D08C
:102A40007A281FD030E02068011D216000686946A7
:102A50000831896A017070E02068011D21600268F8
:102A600068460830806AC117C2E9000165E0206845
:102A7000011D2160026868460830806AC117C2E9FA
:102A800000015AE02068011D216000686946083194
:102A9000896A016051E02068011D21600068694673
:102AA0000831896A018048E02068011D21600068C2
:102AB00069460831896A01603FE02068011D216094
:102AC00002686846083012A9816030461040CDE99E
:102AD000000978211FE79DF83E006C2820681DD072
:102AE000011D216000686946083188606946083127
:102AF000CA6A002A02D5FFF751FC0BE00021FFF75C
:102B000001FC20B1694608318968401A02E0684634
:102B10000830C06A6946083148610EE0011D216035
:102B20000168A0E66846083001696A460832481C18
:102B3000106107B9252712A8475400266D1C002EE6
:102B400072D168460830006B694608310969401A3D
:102B500069460831C969401A694608314969401A0D
:102B600069460831096A401A694608318969401A7C
:102B700069460831496A461A68460830808E40071F
:102B800006D420223100684600F050F800284BD0CF
:102B900068460830026912A9684600F013FD002853
:102BA00042D168460830C1693022684600F03EF8DC
:102BB000002839D068460830426968460830816884
:102BC000684600F0FFFC00282ED168460830016AF4
:102BD0003022684600F02AF8002825D068460830E0
:102BE0008269684608304069694608318968091871
:102BF000684600F0E7FC002816D168460830416AB4
:102C00003022684600F012F800280DD068460830DF
:102C1000808E40077FF5F9AC20223100684600F035
:102C200005F800287FF4F1AC0FE5000074B504004E
:102C30000D00002600E0761CAE4208DA012269464B
:102C4000200000F0BFFC0028F5D0002072BD01205C
:102C500072BD00002DE9F04F94B00400656B88460A
:102C6000002D48BF7FF00045FFF7A2FCA16B0818BC
:102C700081466E4803C8CDE90201A08F400702D407
:102C80004846412806D204AE4020814600208246B4
:102C9000D34609E0FFF7DAFA0600F7D15FF0FF301C
:102CA000C0E008F20208ED1B012D6BDBB8F8001044
:102CB00002AA684600F036FD070004D4B8F8000008
:102CC00028B97F1E03D55FF0FF3083465AE0BD422E
:102CD00058DBA069C119894547D2C4F838A04142E0
:102CE000606A081AE169401AA16A401A216A401A0A
:102CF000E16A401A0190A08F400706D40199202272
:102D00002000FFF793FF00282DD0A269310020009A
:102D100000F058FC38BB616A30222000FFF786FFC4
:102D200008B3E2692169200000F04CFCD8B9A16A1F
:102D300030222000FFF77AFFA8B1226AE0692169FA
:102D40000918200000F03EFC68B9E16A302220003A
:102D5000FFF76CFF38B1A08F400704D501992022FE
:102D60002000FFF763FFC4F818A0A0693A00694685
:102D70003018FFF7D3FAA069C019A061B8F80000B5
:102D800000288ED1A06BA169401A616A401AE169DE
:102D9000401AA16A401A216A401AE16A451AA08FB6
:102DA000400706D4202229002000FFF73FFF00281B
:102DB0002DD0A2693100200000F004FC38BB616A0C
:102DC00030222000FFF732FF08B3E26921692000BA
:102DD00000F0F8FBD8B9A16A30222000FFF726FFE7
:102DE000A8B1226AE06921690918200000F0EAFB15
:102DF00068B9E16A30222000FFF718FF38B1A08FD0
:102E0000400704D5202229002000FFF70FFFC4F857
:102E100018A0C4F838A004A886421CBF3046FFF7AB
:102E2000CBF9584614B0BDE8F08F00BF484A0008FF
:102E30002DE9D343060070698846814640466F28D5
:102E400001D1082705E058F0200078280CBF102792
:102E50000A2703CE3C24083E4246642ACDE90001FD
:102E600001D0692A0BD1002909DC00DB07D2DDE99A
:102E7000000100220023121A8B41CDE90023DDE975
:102E8000000111B908B9706B00B3641EDDE90001DF
:102E90003A00FB1701F016FB3030C0B23A2822BFCF
:102EA0004146AF31401849463A000855DDE9000176
:102EB000FB1701F007FBCDE90023DDE9000101B9B3
:102EC00020B13069494609198842DED3082F0AD15A
:102ED000B08F000707D54846005D302803D0641E38
:102EE0004846302101553C20001BF0614946091934
:102EF0003161716B884206DA081A0C497062B08F32
:102F00000140B1870FE000290DD5B18F11F01401F8
:102F1000102908D1B16BB269891A726A891A0C1A20
:102F2000012CA8BF7462BDE8D38300BFEFFF00008F
:102F300073B50E4D1600002412E0F00707D5DDE949
:102F4000000122002B0000F011FECDE900017610F7
:102F500022002B002000290000F008FE04000D00D4
:102F6000002EEAD1DDE900017CBD00BF0000244055
:102F70002DE9F04790B0804606AE06258946D8E98F
:102F80000001CDE9010159F0200A504661280DD019
:102F9000D8F83400002802D5C8F8345006E005D12E
:102FA0005046672804BF0120C8F8340041466846EF
:102FB00000F020FB0100032202280ED1C8F81C20DB
:102FC0004846612803D37B2801D2CFA100E0CFA1DE
:102FD000D8F81000FFF7A2F992E1D8F81000012903
:102FE0000ADBC8F81C204946612903D37B2901D29A
:102FF000C7A1EFE7C7A1EDE75246612A14D1421CF1
:10300000C8F8102030220270D8F81000421CC8F80E
:1030100010204A46612A14BF582278220270D8F83C
:103020001800801CC8F81800002019B90024ADF859
:1030300000005BE106A8401C03905046612840F068
:103040009D80D8F83440002C5ABF641C24B221243F
:10305000D8E90001CDE90401DDE9010100220023E6
:1030600000F07CFD661C30B1DDE9040191F0004107
:10307000CDE9010103E0DDE90401CDE90101BDF97C
:10308000000006AF7F1C001FADF8000000208DF887
:10309000180005E0002107F8011D401EFAD5FF1DAC
:1030A000012E2BDBDDE901010122002300F04EFDA2
:1030B00020B31C2101A8FFF7D5F9DDE9010101F0DA
:1030C0000BFA0500F61F012E0CDBDDE9010103B44C
:1030D000280001F07BFA02000B0003BC00F030FE78
:1030E000CDE90101FF1D0720012DD6DB401ED4D400
:1030F0002907090F07F8011D2D11F5E7039806AE02
:10310000761C381AA042B8BF04B2002C2ED48442D8
:1031100006DA06A800194078082801D30F2000E03D
:103120000020210001E0641E24B2491E06AA5218A4
:1031300053788342F7D00F2804BF5B1C53700029DB
:1031400007D5BDF9000006AE641C24B2001DADF821
:103150000000200008E0315C3031C9B23A2922BFBA
:103160004A46C63289183154401EF4D5D8F8340086
:10317000002802D5601EC8F83400B7E0DDE901017F
:103180000022002300F0EAFC28B1DDE9010191F002
:103190000041CDE90101BDF900005F4948435F49A5
:1031A00090FBF1F0ADF80000BDF900400720021BD4
:1031B000012A06DBDDE90101FFF7BAFECDE90101D5
:1031C0000DE05749504202000020FFF7B1FE020017
:1031D0000B00DDE9010100F073FBCDE90101504670
:1031E000662814BF06240A34D8F8340004194D4860
:1031F0000068001DA042B8BF044630208DF81800BA
:1032000006AD6D1C012C30DBDDE9010101F07AF91E
:1032100002000823083510000A2101F04DF9C0B260
:103220000A21B2FBF1F2303005F8010D5B1E5BB2F2
:10323000012BF0DA0835083C012CE3DBDDE9010164
:1032400006000F00DDE9010101F05CF901F0D6F99B
:1032500002000B003000390000F072FD324B0022FA
:1032600000F084FCCDE90101CEE7039806AE761CA0
:10327000281A06E0BDF90010401E761C491EADF864
:10328000001031783029F5D05146662903D1BDF9B7
:103290000010491C03E0652914BF00210121D8F862
:1032A0003420541824B2A042B8BF04B2002C1DD45C
:1032B000844204DA305D352801D3392000E0302023
:1032C000210001E0641E24B2491E725C8242F9D0E2
:1032D000392804BF501C7054002907D5BDF90000DF
:1032E000761E641C24B2401CADF80000BDF900003D
:1032F0002300320001B44946404600F017F801B0FF
:1033000010B0BDE8F08700BF6E616E004E414E0008
:10331000696E6600494E460097750000A086010060
:103320000000F03F084A000884D797412DE9F04F8C
:1033300086B004001D0088461700FEF77DFF666B0F
:10334000406A012D00788146BCBF01259CA7E06939
:10335000AB460090216908188246A08F58F02001E2
:1033600066290CD0672940F09480BDF93C207FF09D
:1033700003039A42C0F29380B24280F29080BDF97A
:103380003C20521CADF83C20662909D0000702D42D
:10339000B345B8BF5E46BDF93C00361A48BF0026AB
:1033A000BDF93C0001282CDA0098401CE061302077
:1033B0008AF80000012E02DAA08F000705D5E16926
:1033C0004A46481CE06120694254BDF93C00414234
:1033D0008E42BCBF7042ADF83C00BDF93C0041429A
:1033E000A16236185E45B8BF35462DB22562E06948
:1033F00023692A0039001818FEF790FF701BE0625D
:10340000C8E085421ADA2A0039005046FEF786FFE6
:10341000E0691BEB0000E061BDF93C10B1EB0B0172
:10342000A162012E02DAA18F090705D521694A465A
:103430000A54206A401C2062E662ABE00246390072
:103440005046FEF76BFFE069BDF93C104118E161A1
:10345000BDF93C002D1A012E02DAA08F000704D519
:10346000481CE06120694A4642542DB2AE42B8BFC2
:103470003546BDF93C0023692DB23918E0692A00B0
:103480001818FEF74BFFE0694019E061701BA0625D
:1034900080E04046612812D17020804613E0B34599
:1034A00002DA000758BF5E46761E48BF0026404637
:1034B000672819BF452080466520804603E04128E3
:1034C00004BF502080460098791C401CE061387889
:1034D000012E8AF8000002DAA08F000718D5E269F1
:1034E0004B46501CE0612069012E835410DB6D1E99
:1034F0002DB2AE42B8BF3546E06923692DB22A002D
:103500001818FEF70BFFE0694019E061701BA0621C
:10351000E06921690F1807F8018BBDF93C0000280C
:1035200003D42B2007F8010B07E02D2007F8010B2F
:10353000BDF93C004142ADF83C1000250BE00A22E9
:10354000014601A8FEF72AFE029903A841550198F9
:103550006D1CADF83C00BDF93C000128EFDA022DEE
:1035600006DA58F02000652804BF302007F8010B68
:103570004DB9302007F8010B07E06D1E03A8405D30
:10358000303007F8010B012DF7DAE06921690818DE
:10359000381A2062A08F10F0140010280DD1A069F5
:1035A000E1694018A16A4018216A4018E16A401890
:1035B000A16B8842BCBF081A606206B0BDE8F08FFC
:1035C00030000000D0B5040000200E00170005E018
:1035D000206B761C7F1E401C2063002047B1317891
:1035E000E068A2689047E0600028F1D15FF0FF300A
:1035F000D0BD000070B50D0016490400E888002613
:1036000001400811144988420DD12680E88800073E
:1036100005D1A88818B9688808B9288808B1022097
:1036200070BD012070BD012804DA2800FEF7BEFE3F
:1036300001280BDAE988094A0A4009491143E9805F
:103640000849401820805FF0FF3070BD26800020C0
:1036500070BD00BFF07F0000FF0700000F8000007A
:10366000E03F000002FCFFFF30B504000D00280021
:10367000FEF77AFEA84218BF0024200030BD0000EB
:1036800070B5274E0024002516EB8500001DFEF7BF
:1036900025FD6D1C142DF7DB16EB84005430FEF76E
:1036A0001DFD641C032CF7DB70BD000070B51C4EC3
:1036B0000024002516EB8500001DFEF707FD6D1C9C
:1036C000142DF7DB16EB84005430FEF7FFFC641C6E
:1036D000032CF7DB0248BDE87040FEF725BD00BFB4
:1036E000504A000830B5084D0400286808B9FFF7B3
:1036F000DDFF01202860032C04D215EB8400543038
:10370000FEF7F4FC30BD00001802002000B50328CD
:1037100005D2034911EB80005430FEF7EFFC00BDE9
:103720001802002070B504000D001600FEF722FEFE
:10373000320029002000BDE87040FEF717BF0000EE
:10374000014CA04702E0000049210008014CA646B8
:10375000204700001D21000870B491EA030C44BF0B
:1037600083F0004300F0F4BA8B4208BF824205D9CF
:103770008446104662468C46194663464FF4001C48
:103780001CEB410F01D370BC7047BCEB430F12D947
:1037900052EA430651D0BCEB410F07D80C0DDB02B7
:1037A000A4EB1356761E342E0CDD46E023F00043C6
:1037B0008018594141E00C0DB4EB1356352E3CDC1A
:1037C0004FF0004545EAC323DB0A45EAC121C9128F
:1037D000202E11DB203E18BF5FEA020263FA06F5D5
:1037E00023FA06F385EA030518BF45F00105C01862
:1037F00051F100010CD213E072FA06F5F240554087
:10380000F3415A40B340F3405A408018594107D31E
:1038100049085FEA30005FEA350528BF45F0010539
:1038200001F580116D0008BF10F0010F98BF5FEA2D
:10383000350550F1000041EB045170BC4FF4001C01
:103840001CEB410F38BF70470020090D0905704778
:103850004FF4001C1CEB410F98BF1CEB430F0DD81D
:1038600050EA410C08BF52EA430C08BFE44505D0BA
:1038700051EA030C03D48B4208BF8242704799423D
:1038800008BF9042704700004FF4001C1CEB410F32
:1038900098BF1CEB430F0DD850EA410C08BF52EA09
:1038A000430C08BFE44505D051EA030C03D4994208
:1038B00008BF904270478B4208BF824270470000A9
:1038C0004FF4001C1CEB410F38BF1CEB430F17D308
:1038D0001CEB410F09D31CEB430F28BF6FF0000115
:1038E0001B4248BF81F0004170471CEB430F18BFDB
:1038F0006FF0000102BF594001F000410020704705
:10390000BCEB410F98BFBCEB430F3AD950EA410CD6
:1039100018BF52EA430C13D150EA410C81EA03016B
:1039200001F000414FF000001EBF41F0E04141F0C6
:103930007F61704752EA430C08BF6FF00001704787
:10394000F0B475464FF40014B4EB410F12D9B4EB48
:10395000430F08D900F0CDFA00F0BCFAE41B5FEA8F
:103960005C0CAE4615E000F0B5FA5F00A4EB5754CE
:10397000AE460EE000F0BDFA4C00C7EB5454AE4624
:1039800007E0F0B44C005CEB0C0C640D5F00A4EBA2
:1039900057544CF1000C04F580646FF0404606EA81
:1039A000812545EA9055800206EA832343EA925333
:1039B0000221920227D0861A9D4143F0804304D20F
:1039C000641E76006D41B6185D4176006D419642E9
:1039D00075EB030724BFB61A3D464941F5D34FF4B2
:1039E000006076006D41964275EB030724BFB61A5E
:1039F0003D464041F5D376006D41B61A75EB03079D
:103A000008BF364249E0ED1A43F0804303D2641EFA
:103A1000400043EB45055B4200421AD041F480610F
:103A2000001853EB450538BFED1A4941001853EB18
:103A3000450538BFED1A4941001853EB450538BF1D
:103A4000ED1A4941001853EB450538BFED1A4941BD
:103A5000ECD313EB450538BFED1A494113EB45058F
:103A600038BFED1A494113EB450538BFED1A4941FE
:103A7000F4D34FF4006013EB450538BFED1A404115
:103A800013EB450538BFED1A404113EB450538BF30
:103A9000ED1A4041EFD313EB45052CBF4FF0004525
:103AA000002518BF45F0804540EA4150C90A641E10
:103AB0002FDC41F48011D4F10104202C10DAC4F180
:103AC00020072D4225FA04F518BF45F0010500FA3C
:103AD00007F63543E04001FA07F63043E14026E0BF
:103AE000342C12DC203C2D4208BF5FEA4007C4F1B1
:103AF000200720FA04F518BF45F0010501FA07F682
:103B0000354331FA04F0002111E000205FEACC7166
:103B10001AE021F4801111EB04515CBF11F5801FF4
:103B200005E000204FF07F6141F0E0410AE06D00C8
:103B300008BF10F0010F98BF5FEA350550F1000093
:103B400041F1000141EACC71F0BC704700B5FFF7CC
:103B50007FFE8CBF0020012000BD000000B5FFF7F4
:103B600093FE2CBF0020012000BD00004FF4001C7C
:103B70001CEB410F38BF1CEB430F29D31CEB410F4B
:103B800015D309D11CEB430F07D318BF6FF0000109
:103B90001B4248BF81F00041704752EA430C08BF06
:103BA0006FF000011B4248BF81F0004170471CEBE1
:103BB000430F88BF6FF0000350EA410208BF6FF067
:103BC0000003094248BF83F00043190000207047FA
:103BD000BCEB410F98BFBCEB430F2BD950EA410C13
:103BE00018BF52EA430C04D1594001F000410020B3
:103BF0007047F0B475464FF4001CBCEB410F12D96E
:103C0000BCEB430F08D900F074F900F063F93C19DC
:103C10005FEA5C0CAE4615E000F05CF95F0004EB77
:103C20005754AE460EE000F064F94C0007EB5454D4
:103C3000AE4607E0F0B44C005CEB0C0C640D5F008A
:103C400004EB57544CF1000CA4F580644FF480173A
:103C50001B0347EA1333090347EA1131A0FB02753E
:103C6000002F4FF00007E3FB00573846E2FB0150FE
:103C70004FF00007E3FB010718BF45F00105394687
:103C800011F4007F36D1070D47EA01312F0D47EAC5
:103C900000302D03641C36DCD4F10104202C10DA32
:103CA000C4F120072D4225FA04F518BF45F001059F
:103CB00010FA07F63543E04011FA07F63043E140C9
:103CC0002FE0352C12DC203C2D0008BF5FEA4007B6
:103CD000C4F1200720FA04F518BF45F0010511FAD8
:103CE00007F0054331FA04F000211AE000204FEA02
:103CF000CC7123E0470D47EAC1216F0D47EAC02090
:103D0000ED02A41CC8DD21F4801111EB04515CBF4D
:103D100011F5801F05E000204FF07F6141F0E04188
:103D20000AE06D0008BF10F0010F98BF5FEA35058B
:103D300050F1000041F1000141EACC71F0BC704744
:103D400070B491EA030F44BF83F00043FFF70CBD4A
:103D50008B4208BF824207D984461046624681F0F2
:103D6000004C83F0004163464FF4001C1CEB410FF4
:103D700006D308BF1CEB430F28BF6FF00001A7E07C
:103D8000BCEB430F18D952EA430610D04FEA4C0C53
:103D9000BCEB410F07D80C0DDB02A4EB1356761ECB
:103DA000342E5ADD94E023F00043801A994150EA02
:103DB000410608BF00218BE00C0DA4EB1356362EF4
:103DC00048DC4FF00045012E45DC4FEA045445EA3B
:103DD000C32343EA525312BFD20292025B0845EA60
:103DE000C12141EA5051D2EBC020994126D404BFF1
:103DF00001460020B1FA81F601FA06F1C6F120026F
:103E000020FA02F241EA020100FA06F002BF20366F
:103E100009425DE05FEAF474B4EB465434F0010605
:103E20004FEA74040AD8D6F50016760D04F0004463
:103E3000F04071FA06F25040F1404840C00A40EAB2
:103E4000415021F0004128BF5FEA500550F10000C9
:103E500044EBD1213CE045EAC323DB0A45EAC1211A
:103E6000C90A202E11DB203E18BF5FEA020263FA66
:103E700006F523FA06F385EA030518BF45F00105A8
:103E80006D42984161F100010CE072FA06F5F240D2
:103E9000554063FA06FC82EA0C02F3405A406D4238
:103EA0009041994111F4801F05D1641E620502D032
:103EB0006D004041494121F480116D0008BF10F0B0
:103EC000010F98BF5FEA350550F1000041EB045146
:103ED00070BC7047400049414CEB0C0C002411F4BD
:103EE000801F05D1641E4000494111F4801FF9D0A4
:103EF000704752005B414CEB0C0C002713F4801F01
:103F0000F6D17F1E52005B4113F4801FF9D0704739
:103F100090EA010F44BF81F0004100F0E0B9A446EF
:103F2000441A3CBF001B0919FF2303EAD05413EACB
:103F3000D15218BF94EA030F19D14FF0807313EBDD
:103F4000400F24BF644670474B0004BF644670476F
:103F5000244207D04902A31A172B4FF000420FDD6D
:103F60006446704721F00041401864467047A31A28
:103F7000182BC4BF644670474FF0004242EA01214B
:103F8000C40D42EA0020C3F1190201FA02F2D9403D
:103F9000401834BF641E4FEA300052EA40624FEAD4
:103FA000102008BF10F0010F08BF5FEA320240EB9B
:103FB000C4504FF0807313EB400F3CBF6446704712
:103FC000C00DC00564467047A446FF2313EAD054D1
:103FD0001EBF13EAD15294EA030F92EA030F6BD18A
:103FE0004FF0807212EB400F38BF12EB410F17D326
:103FF00012EB400F0AD3644612EB410F28BF6FF05B
:104000000000094248BF80F00040704712EB410FAA
:10401000644612BF6FF00000484000F00040704757
:10402000440018BF5FEA41040ED14400644680EAB0
:10403000010000F000401CBF40EAC3507047490037
:1040400008BF6FF0000070474FF08072B2EB400F76
:1040500022D9B2EB410F0ED990EA010F58BF83F07D
:10406000010300020902B0FA80F2B1FA81F4904033
:10407000A140A41A2CE003EAD15490EA010F58BFE2
:1040800083F001034002B0FA80F290406442A41A27
:10409000090241F000411BE003EAD05490EA010F0D
:1040A00058BF83F001030902B1FA81F29140A41ACA
:1040B000000240F000400BE090EA010F58BF83F08F
:1040C0000103A41A4FF0004242EA012142EA002013
:1040D000420849084FF48070521A02D2641E01EB64
:1040E0004202D1EB420238BF8A184041D1EB420272
:1040F00038BF8A184041D1EB420238BF8A1840418C
:10410000D1EB420238BF8A184041EAD37F3417DC32
:10411000D4F1020440F08070182C0EDCC4F12101AF
:1041200010FA01F1E0400A4308BF10F0010F88BF08
:10413000401C40EAC37064467047D8076446704725
:10414000400810F0010F08BF124288BF401C10EB5E
:10415000C45058BF10F5000F44BFFF20C00564468F
:1041600040EAC37070470000A446FF2212EAD05410
:1041700018BF12EAD15318BF94EA020F18BF93EA8E
:10418000020F63D14FF0807313EB400F38BF13EB76
:10419000410F2BD313EB400F18D31CBF644670475D
:1041A00013EB410F08D318BF6FF00000094248BF5E
:1041B00080F00040644670474B0008BF6FF000007D
:1041C000094248BF80F000406446704713EB410F3E
:1041D00088BF6FF00001430008BF6FF0000100428C
:1041E00048BF81F00041080064467047440018BF92
:1041F0005FEA410404D1484010F000406446704733
:10420000B3EB400F12D9B4EB410FD9D802EAD15425
:1042100090EA010F58BF82F001024002B0FA80F329
:104220009840E41A090251F000411BE002EAD05420
:1042300090EA010F58BF82F001024902B1FA81F3FE
:104240009940E41A000250F000400BE090EA010FA0
:1042500058BF82F00102E4184FF0004343EA012105
:1042600043EA0020A1FB003000424CBF641C400028
:104270001B4218BF40F00100803C15DAD4F108045D
:10428000202C0EDCC4F1210310FA03F320FA04F011
:1042900008BF10F0010F88BF401C40EAC27064469E
:1042A0007047D0076446704743064FEA102008BFA6
:1042B00010F0010F88BF401C10EBC45058BF10F520
:1042C000000F44BFFF20C00540EAC270644670473B
:1042D00090EA010F44BF81F00041FFF720BEA446E1
:1042E000814282BF80F0004481F000402146FF23DC
:1042F00003EAD05413EAD15218BF94EA030F20D135
:104300004FF0807313EB400F07D308BF13EB410F3F
:1043100028BF6FF00000644670474B000CD0022CA1
:1043200007DB4902A31A172B4FF000423FDD64461A
:10433000704721F00041401A430008BF0020644646
:104340007047A31A182BC4BF644670474FF0004251
:10435000012B2ADC00F0004342EA012108BF490892
:1043600042EA0020401A15D404BF64467047B0FAF0
:1043700080F29040A41A0DD8C4F10904C4F12102BE
:10438000E0401843924008BF10F0010F88BF401C66
:104390006446704720F0004053EA102028BF5FEACF
:1043A000500240EBC4506446704742EA0121C40DFC
:1043B00042EA0020C3F1200201FA02F2D94052423F
:1043C000884100D4400064F1010452EA406208BF11
:1043D00010F4807F08BF20F08000000A40EBC4503A
:1043E000644670472DE9005003D34942404261F1D1
:1043F000000100F01BF8BDE800505FEA4C0C05D34B
:104400004942404261F100011CEA0C0F03D55B42B6
:10441000524263F10003704713F0004C03D55B4236
:10442000524263F100039CEA210CDBD151EA030CF8
:104430000ED1002805D08446B0FBF2F002FB10C27A
:1044400070470B4602464FF000014FF000007047E6
:10445000994208BF9042F4D32DE9F00100240025D1
:104460000F00060052EA03081FD05FF00008921800
:104470005B4108D2BB4208BFB24298BF08F10108B5
:10448000F5D918F100085FEA33034FEA3202B01A97
:1044900077EB030124BF0F46064664416D415B087C
:1044A0004FEA3202B8F10108F1DA200029003200A7
:1044B0003B00BDE8F00170478C46B0FBF1F10CFB0E
:1044C0001100704700B5FFF7B1FF84461000624647
:1044D0008C461900634600BDF446400D40EAC120F9
:1044E000490006D200F013F8004248BF6FF00040C8
:1044F000604700F00CF84FF0004188428CBF08463E
:1045000040426047400D40EAC12049000CD240F0D3
:104510000040490DA1F58061491C05D4D1F11F016E
:1045200054BFC840C01770474FF0000070470000EC
:10453000014648074FF0807C1CEB410F05D30CBFB0
:1045400041F4E0016FF000017047BCEB410F12D95C
:104550005FEA410C14D001F0004101F160514FEAD3
:10456000CC1C5FEA4C0CA1F58011FAD54FEA4C50F7
:1045700001EBDC217047C91021F0E04101F16051ED
:10458000704700004100090E7F3916D4D1F11F0198
:1045900015D4400007D2C00140F00040C84048BFD9
:1045A0006FF0004070474FEAC01040F00040C84034
:1045B0004CBF4FF00040404270470020704700421F
:1045C0004FF0004058BFC04370470000010058BF83
:1045D00000F015B8F446404200F011F851F00041E7
:1045E00060470000002858BF00F017B8F44640426A
:1045F00000F013F850F00040604700000100002870
:1046000009D0B0FA80F18840C91CC1F58461090560
:1046100001EBD0214005704700280DD0B0FA80F1A1
:104620008840D1F19D0110F07F0F06D1000A10F0F3
:10463000010F03D800EBC1507047000A40EBC15096
:024640007047C1
:1046440011010000000000205C4600087A0100000F
:10465400140100201401002000000000BC4A0008DE
:10466400BC4A0008BC4A0008BC4A0008BC4A00080E
:10467400BC4A0008BC4A0008FFFFFFFFFFFFFFFF22
:10468400BD4A0008BC4A0008BC4A0008BC4A0008ED
:10469400BC4A0008E8490008F0490008BC4A000880
:1046A400BC4A0008000000000000000000000000F8
:1046B40000000000000000000000000000000000F6
:1046C400BF4A000800000000BF4A000800000000C4
:1046D40000000000744A0008000000000000000010
:1046E40000000000000000000000000000000000C6
:1046F40000000000000000000000000000000000B6
:1047040000000000000000000000000000000000A5
:104714000000000000000000000000000000000095
:10472400000000000000000002040101C801002094
:1047340018020020C8010020C8010020C801002080
:104744000D010020F4000020000000000000000023
:104754000000000000000000000000000000000055
:094764000000000000000000321A
:10477000202020202F2A2A2A2A2A2A2A2A2A2A2ABC
:104780002A2A2A2A2A2A2A2A2A2A2A2A2A2A2A2A89
:104790002A2A2A2A2A2A2A2A2A2A2A2A2A2A2A2A79
:1047A0002A2A2A2A2A2A2A2A2A2A2A2A2A2A2A2A69
:1047B0002A2A2A2A2A2A2A2A2A2A2A2A2A2F0000A8
:1047C0002020202020202F2A2020202020202020D0
:1047D00020202020202020202020202020202020D9
:1047E000B3CCD0F2CBB5C3F720202020202020204E
:1047F00020202020202020202020202020202020B9
:1048000020202020202020202020202020202020A8
:104810002A2F00002020202020202F2A20202020A6
:1048200031A1A2CFDED6C6D0D0BDF8CBD9B6C8A3B1
:10483000BA302D313030A3BB202020202020202072
:104840002020202020202020202020202020202068
:104850002020202020202020202020202020202058
:10486000202020202A2F00002020202020202F2A56
:104870002020202032A1A22BA3BABCD3CBD9A3BB2A
:104880002DA3BABCF5CBD9A3BB202020202020200B
:104890002020202020202020202020202020202018
:1048A0002020202020202020202020202020202008
:1048B00020202020202020202A2F0000202020201F
:1048C00020202F2A2020202033A1A2CAE4C8EB7880
:1048D000A1A262A1A279A3ACB7D6B1F0BDF8D0D0A5
:1048E000D1B2CFDFA1A2B1DCD5CFA1A2BBADD4B2F2
:1048F000A3BB20202020202020202020202020209A
:1049000020202020202020202020202020202020A7
:10491000202A2F002020202020202F2A2020202085
:1049200034A1A2CAE4C8EB77A1A261A1A273A1A29B
:1049300064B7D6B1F0BDF8D0D0C7B0BDF8A1A2D74A
:10494000F3D7AAA1A2BAF3CDCBA1A2D3D2D7AABF43
:10495000D8D6C6A1A2BFD5B8F1C9B2B3B5A3BB2002
:10496000202020202A2F00002020202020202F2A55
:104970002A2A2A2A2A2A2A2A2A2A2A2A2A2A2A2A97
:104980002A2A2A2A2A2A2A2A2A2A2A2A2A2A2A2A87
:104990002A2A2A2A2A2A2A2A2A2A2A2A2A2A2A2A77
:1049A0002A2A2A2A2A2A2A2A2A2A2A2A2A2A2A2A67
:1049B0002A2A2A2A2A2A2A2F0A000000656E7465EC
:1049C000723A000000000000010203040102030427
:1049D000060708090204060800FFFF0000FFFF00A9
:1049E000313313333331331366616C736500000068
:1049F00074727565000000000000000000000000F7
:104A000000000000000000000F0000003500000062
:104A10003401000000040000CDFEFFFF03FCFFFF97
:104A2000000000000000B03CFFFFFFFFFFFFEF7F32
:104A30000000000000001000000000000000000066
:104A4000686A6C747A4C00000000000000000000EE
:104A500078020020000000008136000800000000FD
:104A60000000F07F66616C7365000000747275650C
:104A700000000000C04A0008C04A0008C04A000800
:104A8000C04A0008C04A0008C04A0008C04A0008DE
:104A9000FFFFFFFFFFFFFFFFC14A0008C04A0008F9
:104AA000C04A0008C04A0008C04A0008644A00081A
:104AB0006C4A0008C04A0008C04A0008002E0000E6
:034AC000002E00C5
:0400000508000121CD
:00000001FF
